:020000020000FC
:020000003FCAF5
:1000080069CAFCC50F93BA9AB89A0FEF0FB90AE2FA
:100018000DB900EF0EB90F910895C29AC098C29811
:10002800C09A0895C098C29AC09A08950F930FB9BC
:1000380000EF0EB9689A769BFDCF0FEF0FB9C29A01
:10004800C2980F91089500000000000000007E8112
:1000580095B1B195817E7EFFEBCFCFEBFF7E0E1F72
:100068003F7E3F1F0E00081C3E7F3E1C080018BA4A
:10007800FFFFFFBA180010B8FCFFFCB81000000022
:10008800183C3C180000FFFFE7C3C3E7FFFF003C34
:10009800664242663C00FFC399BDBD99C3FF70F834
:1000A8008888FD7F070F004E5FF1F15F4E00C0E0CA
:1000B800FF7F05050707C0FF7F0505657F3F995A44
:1000C8003CE7E73C5A997F3E3E1C1C08080008089C
:1000D8001C1C3E3E7F00002466FFFF662400005F74
:1000E8005F00005F5F00060F097F7F017F7F40DAB6
:1000F800BFA5FD5903020070707070707000809485
:10010800B6FFFFB694800004067F7F060400001047
:10011800307F7F3010000808082A3E1C0800081CA1
:100128003E2A080808003C3C202020202000081C0B
:100138003E08083E1C0830383C3E3E3C3830060E2F
:100148001E3E3E1E0E0600000000000000000006D5
:100158005F5F060000000007070007070000147F24
:100168007F147F7F1400242E6B6B3A1200004666C2
:1001780030180C666200307A4F5D377A4800040701
:10018800030000000000001C3E6341000000004125
:10019800633E1C000000082A3E1C1C3E2A08080872
:1001A8003E3E080800000080E060000000000808EB
:1001B80008080808000000006060000000006030C7
:1001C800180C060301003E7F71594D7F3E004042E6
:1001D8007F7F40400000627359496F6600002263C8
:1001E80049497F360000181C16537F7F5000276747
:1001F80045457D3900003C7E4B49793000000303BA
:1002080071790F070000367F49497F360000064F95
:1002180049693F1E0000000066660000000000807B
:10022800E66600000000081C366341000000242434
:10023800242424240000004163361C080000020323
:1002480051590F0600003E7F415D5D1F1E007C7EF8
:1002580013137E7C0000417F7F49497F36001C3E96
:10026800634141632200417F7F41633E1C00417F1F
:100278007F495D416300417F7F491D0103001C3EAA
:100288006341517372007F7F08087F7F000000413F
:100298007F7F41000000307040417F3F0100417F77
:1002A8007F081C776300417F7F41406070007F7F3B
:1002B8000E1C0E7F7F007F7F060C187F7F001C3E80
:1002C8006341633E1C00417F7F49090F06001E3FC2
:1002D80021717F5E0000417F7F09197F6600266FCC
:1002E8004D597332000003417F7F410300007F7F37
:1002F80040407F7F00001F3F60603F1F00007F7FFE
:100308003018307F7F0043673C183C674300074F35
:1003180078784F070000476371594D677300007F75
:100328007F41410000000103060C183060000041C5
:10033800417F7F000000080C0603060C080080803F
:100348008080808080800000030704000000207403
:1003580054543C784000417F3F4848783000387C0E
:1003680044446C280000307848493F7F4000387C7E
:1003780054545C180000487E7F490302000098BC72
:10038800A4A4F87C0400417F7F08047C7800004422
:100398007D7D4000000060E08080FD7D0000417FA1
:1003A8007F10386C440000417F7F400000007C7C57
:1003B80018381C7C78007C7C04047C780000387C2D
:1003C80044447C38000084FCF8A4243C1800183C01
:1003D80024A4F8FC8400447C784C041C1800485C75
:1003E80054547424000000043E7F442400003C7CE4
:1003F80040403C7C40001C3C60603C1C00003C7C55
:100408007038707C3C00446C3810386C44009CBCDC
:10041800A0A0FC7C00004C64745C4C6400000808DC
:100428003E7741410000000000777700000041411D
:10043800773E0808000002030103020301007078F8
:100448004C464C7870000E9F91B1FB4A00003A7AF6
:1004580040407A7A4000387C54555D1900000223E8
:100468007555557D7B42217554547D794000217521
:1004780055547C784000207457577C784000183CCD
:10048800A4A4E4400000023B7D55555D1B02397D64
:1004980054545D190000397D55545C18000001451D
:1004A8007C7C410100000203457D7D43020001453B
:1004B8007D7C40000000797D1612167D79007078E9
:1004C8002B2B78700000447C7C5555450000207427
:1004D80054547C7C54547C7E0B097F7F4900327BCA
:1004E80049497B320000327A48487A320000327A31
:1004F8004A48783000003A7B41417B7A40003A7A9A
:100508004240787840009ABAA0A0FA7A000001190F
:100518003C66663C19013D7D40407D3D0000183C2D
:1005280024E7E7242400687E7F49436620002B2FB8
:10053800FCFC2F2B0000FFFF09092FF6F8A040C094
:1005480088FE7F090302207454557D7940000044D9
:100558007D7D410000003078484A7A3200003878C2
:1005680040427A7A40007A7A0A0A7A7000007D7DE1
:1005780019317D7D000000262F292F2F2800002605
:100588002F292F26000030784D456020000038388C
:1005980008080808000008080808383800004F6FE5
:1005A8003018CCEEBB914F6F30186C76FBF9000019
:1005B800007B7B000000081C3622081C36222236ED
:1005C8001C0822361C08AA005500AA005500AA5586
:1005D800AA55AA55AA55DDFFAA77DDAAFF7700001C
:1005E80000FFFF000000101010FFFF0000001414AF
:1005F80014FFFF0000001010FFFF00FFFF001010A5
:10060800F0F010F0F000141414FCFC0000001414B6
:10061800F7F700FFFF000000FFFF00FFFF001414C2
:10062800F4F404FCFC0014141717101F1F0010101A
:100638001F1F101F1F001414141F1F00000010108C
:1006480010F0F00000000000001F1F101010101024
:10065800101F1F101010101010F0F01010100000D4
:1006680000FFFF10101010101010101010101010B4
:1006780010FFFF101010000000FFFF1414140000FA
:10068800FFFF00FFFF1000001F1F101717140000C6
:10069800FCFC04F4F414141417171017171414148A
:1006A800F4F404F4F4140000FFFF00F7F714141432
:1006B8001414141414141414F7F700F7F71414147A
:1006C80014171714141410101F1F101F1F101414C0
:1006D80014F4F41414141010F0F010F0F0100000DA
:1006E8001F1F101F1F100000001F1F1414140000EC
:1006F80000FCFC1414140000F0F010F0F0101010BE
:10070800FFFF10FFFF10141414FFFF14141410102F
:10071800101F1F000000000000F0F0101010FFFF75
:10072800FFFFFFFFFFFFF0F0F0F0F0F0F0F0FFFF49
:10073800FFFF0000000000000000FFFFFFFF0F0F99
:100748000F0F0F0F0F0F387C446C386C4400FCFE01
:100758002A2A3E1400007E7E020206060000027E5F
:100768007E027E7E020063775D4963630000387C09
:10077800447C3C04040080FE7E20203E1E000406CB
:10078800027E7C06020099BDE7E7BD9900001C3E89
:100798006B496B3E1C004C7E7301737E4C003078B5
:1007A8004A4F7D390000183C243C3C243C1898FCF6
:1007B800643C3E273D181C3E6B49490000007E7F83
:1007C80001017F7E00002A2A2A2A2A2A000044449E
:1007D8005F5F4444000040515B4E44400000404489
:1007E8004E5B51400000000000FEFF01070660E07C
:1007F80080FF7F00000008086B6B080800002436A3
:1008080012362436120000060F090F0600000000F9
:100818000018180000000000001010000000103040
:1008280070C0FFFF0101001F1F011F1E00000019FB
:100838001D171200000000003C3C3C3C000000007A
:100848000000000000000F931F932F9322E01FEF7A
:100858000FEF0A95F1F71A95D9F72A95C1F72F9155
:100868001F910F9108950F931F931FEF0FEF0A9594
:10087800F1F71A95D9F71F910F91089500E01830F4
:1008880018F018500395FBCF089530E0212F330F4F
:1008980027FD3160220F330F27FD3160220F330F00
:1008A80027FD3160220F089520E4002321F00A95E6
:1008B800C20FD11DFACF0895AE2000B0C800104075
:1008C800813FA1A6A83FA4D300D5F0D922DA12DB34
:1008D800208D14000F931F93FF93EF9393DBF8E0A1
:1008E800E0EC1BE1059107D01A95E1F7EF91FF9134
:1008F8001F910F9108950F9390DB08E797DB00E0B5
:1009080095DB0F9193DB8EDB08950F9386DB08E769
:100918008DDB00E48BDB0F9189DB84DB08950F937B
:100928007CDB08E783DB00E481DB0F9108950F93FC
:1009380001E2E1DF012FDFDF022FDDDF02E2DBDF93
:10094800032FD9DF042FD7DF0F9108950F931F933B
:100958002F9301E2D0DF00E0CEDF0FE7CCDF02E229
:10096800CADF00E0C8DF07E0C6DFD9DF002725E0DF
:100978001FEF5CDB1A95E9F72A95D1F753DB2F9126
:100988001F910F9108950F930FEAB5DF0F91089506
:100998000F930EEAB0DF0F9108950F931F932F93D3
:1009A800CF93DF93D0E0C0E6C00FD11D67DF7CDFB7
:1009B80021E0112319F0220F1A95FCCF1881122B70
:1009C8001883DF91CF912F911F910F9108950F9365
:1009D8001F932F93CF93DF93D0E0C0E6C00FD11DB4
:1009E8004DDF62DF21E0112319F0220F1A95FCCFA9
:1009F8002095188112231883DF91CF912F911F9191
:100A08000F9108950F931F93CF93DF93D0E0C0E623
:100A1800C00FD11D33DF48DF21E0112319F0220F69
:100A28001A95FCCF1881122320E009F021E0DF910C
:100A3800CF911F910F9108950F933F935F93512F7B
:100A480076DF6DDF152F0591F1DA13952117D8F7A9
:100A580033954317B8F7E6DA152F5F913F910F9159
:100A680008950F932F933F934F93EF93FF9348E08D
:100A7800EEE4F0E00ADFE20FF31F51DF0591D6DA6A
:100A88004A95E1F7CFDAFF91EF914F913F912F917E
:100A98000F9108950F93042F432F49DF40E83FDF5C
:100AA800C5DA4A95E9F7BEDA402F0F9108950F93FA
:100AB8002F93212F3CDF0FEF28E031DFB7DA2A959B
:100AC800E9F7B0DA2F910F9108950F93EF93FF9301
:100AD800F0E0E0E608EB11920A95E9F708EC1192CC
:100AE8000A95E9F7FF91EF910F9108950F931F93DE
:100AF800EF93FF93F0E0E0E601E2FDDE00E0FBDECD
:100B08000FE7F9DE02E2F7DE02E0F5DE07E0F3DEEA
:100B180006DF18EB01918ADA89DA1A95D9F718EC09
:100B2800019184DA83DA1A95D9F7FF91EF911F9131
:100B38000F9178DA0895E199FECFE0E0ECBBE0E0B0
:100B4800EEBBE0E0EFBBEE27EDBBE29AE19A089539
:100B5800E199FECFE0E0EEBBE0E0EFBBE09AEDB359
:100B680008950E2FF5DF0E1758F0E199FECFE0E05B
:100B7800ECBBE0E0EEBBE0E0EFBB0DBBE29AE19A34
:100B880008954F93902EA12E0E2F10E00A3018F0E2
:100B980013950A50FBCFF02E00E01A3018F0039599
:100BA8001A50FBCFE12E192D2FE73A2D47E00023ED
:100BB80031F0BDDE185F912E102F105D52DF192D18
:100BC8000E0D002331F0B3DE185F912E1E2D105D3F
:100BD80048DF192DACDE1F2D105D43DF4F910895BE
:100BE8000F93222433244424882408E2702E02E040
:100BF80003BF09B7026009BF0F9108950F932F93A0
:100C08002FB74420B1F406B304FF239403FF3394B1
:100C180004FD222403FD3324371439F0271449F442
:100C2800222403E0802E409404C0332401E0802E67
:100C380040942FBF2F910F91189511272FE7332735
:100C480045E0FEE0EAE1F8DE06D40DDE12D4C8DFA6
:100C58001EE12FE735E045E06ADE12E502DF15E622
:100C680000DF13E6FEDE1FE6FCDE12E7FADE14E61E
:100C7800F8DE10E2F6DE6CDFEF3F09F45CDF06E534
:100C880015E07FDFEE271EE12FE736E046E04FDE76
:100C980010E5E7DE1CE6E5DE11E6E3DE19E7E1DE56
:100CA8001EE12FE737E047E042DE13E5DADE1FE614
:100CB800D8DE15E7D6DE1EE6D4DE14E6D2DE5520F1
:100CC80061F01EE42FE737E047E031DE1FE4C9DEBC
:100CD8001EE6C7DE10E2C5DE0BC01EE42FE737E0D4
:100CE80047E025DE1FE4BDDE16E6BBDE16E6B9DE0C
:100CF8005FEF16E12FE736E047E050FF37E017DEF9
:100D08001EE5AFDE16E137E050FF36E010DE10E2F8
:100D1800A8DE50958820F1F3082D88240330A1F02F
:100D280016E12FE736E047E050FF37E000DE1EE52A
:100D380098DE16E137E050FF36E0F9DD10E291DE8B
:100D4800509591DD4424E6CF552301F1552061F0FB
:100D58001EE42FE737E047E0EADD1FE482DE16E60F
:100D680080DE16E67EDE0BC01EE42FE737E047E0A4
:100D7800DEDD1FE476DE1EE674DE10E272DE5094DD
:100D88006AD371DD76D36FDD4424C4CF4094DEDDB1
:100D98000895A0DDDBDDF7DD98DE4FDF10E02FE7FB
:100DA80030E041E0C4DD13E55CDE1EE65ADE11E604
:100DB80058DE1BE656DE15E654DEEE2717E32FE76E
:100DC80030E041E0B4DD13E54CDE13E64ADE1FE611
:100DD80048DE12E746DE15E644DE07E610E0D1DE1F
:100DE80010E00EE3DADD0A95E9F7D7DD1FE20EE33E
:100DF800D4DD0A95E9F7D1DD00E01FE2CEDD1A95D2
:100E0800E9F7CBDD0EE31FE2C8DD1A95E9F7C5DD8A
:100E1800089500000000000000000000000000002D
:100E280000000000000000000000000000000000BA
:100E380000000000000000000000000000000000AA
:100E4800000000000000000000000000000000009A
:100E5800000000000000000000000000000000008A
:100E6800000000000000000000000000000000007A
:100E7800000000000000000000000000000000006A
:100E8800000000000000000000000000000000005A
:100E9800000000000000000000000000000000004A
:100EA8000000000000000000000000E020202020DA
:100EB800200000808000000000000080000000008A
:100EC8000080C0000000000000C0000080C060205A
:100ED800008080808080000000000000000000008A
:100EE80000000000000000000000000000000000FA
:100EF80000000000000000000000000000000000EA
:100F080000000000000000000000000000000000D9
:100F180000000000000000000000000000000000C9
:100F280000000000000000000000808784848484A2
:100F380084FC00FF000102040810207F0080603854
:100F48000F0908090E788000007F860F3160C03EC7
:100F5800EB8988888880000080808080800000007D
:100F6800E09C828388985078080808C0782C26244A
:100F78002870C000FC0C08180804FEF0B8ACA48463
:100F88008040000000000000000000000000000099
:100F98000000000000000000000000000000000049
:100FA8000000000000000000000000000000000039
:100FB8000000000000000000000000000000000029
:100FC8000000000000000100000001000000000017
:100FD8000000000000000000000000000101010006
:100FE80000000000000000000000000100000000F8
:100FF80000000000010000000000010000000000E7
:1010080000000000000000000000000000000000D8
:1010180000000000000000000000FE92929EF00018
:10102800F08080F0000000FF0909090F00F090909F
:10103800F00000FF00F09090FF00F09090F00000AA
:101048000000000000000000000000000000000098
:10105800000000F0507000F0D07000F0500070D028
:101068000070D000000010F01000F010F000000038
:10107800F0507000F0000000F050F0003020F00058
:101088000000000000000000000000000000000058
:101098000000000000000000000000000000000048
:1010A8000404040700000000000000000000000025
:1010B8000000000000000000000000000000000028
:1010C8000000000000000000000000000000000018
:1010D8000000000100000001000100010100010101
:1010E80000010100000000010000010101000000F2
:1010F80001000000010101000100010000000100E1
:1011080000000000000000000000000000000000D7
:1011180000000000000000000000000000000000C7
:1011280000000000000000000000000000000000B7
:1011380000000000000000000000000000000000A7
:101148000000000000000000000000000000000097
:101158000000000000000000000000000000000087
:101168000000000000000000000000000000000077
:101178000000000000000000000000000000000067
:101188000000000000000000000000000000000057
:101198000000000000000000000000000000000047
:1011A8000000000000000000000000000000000037
:1011B8000000000000000000000000000000000027
:1011C8000000000000000000000000000000000017
:1011D8000000000000000000000000000000000007
:1011E80000000000000000000000000000000000F7
:1011F80000000000000000000000000000000000E7
:1012080000000000000000000000000000000000D6
:10121800000066E078E145E058E1062F172FBDDBB6
:101228001395BBDB042F152FB8DB1395B6DBA8E0AD
:10123800B8E187E098E10A2F1B2FAFDB1395ADDBF0
:101248000A95ABDB1A95A9DBC2E1D8E10C2F1D2F5B
:10125800A4DB1395A2DBF4E008950E081218180415
:101268001E080A0414103C2018283C0820200E04EC
:101278001208180C1E100A1414183C1C18203C24C0
:1012880020280620101814040808042C1A103220EC
:101298003628260824200C2CF0FF12C0F1FD08C0C7
:1012A800F2FD16C0F3FD1AC0F4FD24C0F5FD1CC004
:1012B800F2FD14C0F3FD0CC0F4FD16C0F5FD1AC014
:1012C800F2FD18C0F3FD10C0F4FD08C0F5FD00C024
:1012D800F0E28A2F9B2FB450925011C0F0E18A2F70
:1012E8009B2FBC5F9E5F0BC0F8E08A2F9B2FA250FC
:1012F8008A9505C0F4E08A2F9B2FAE5F83950895E9
:101308000A2F1B2F7FDB322F082F192F7BDB232B74
:1013180020FD37C0082F192F40DB13953EDB0A2F1D
:101328001B2F3BDB139539DB042F152F50DB13954F
:101338004EDB062F172F4BDB139549DB062F172F94
:101348001E5F60DB20FD18C014505CDB20FD0FC061
:1013580003951E5F57DB20FD05C06A95462F572F62
:101368006A950EC06395462F572F639509C0725032
:10137800462F572F725004C07E5F462F572F7E5F2F
:1013880037C00A2F0C2749F51B2F1D2731F5082FC9
:10139800192F03DB139501DB0A2F1B2FFEDA139598
:1013A800FCDAE39507E610E0ECDBEF93FF931124FA
:1013B8003327F2E1E2E622B72E71E20FF11D059123
:1013C800149120DB20FDF5CFC02FD12FE6DA13953D
:1013D800E4DAFF91EF913FD00BC0082F192FDDDA27
:1013E8001395DBDA0A2F1B2FD8DA1395D6DABB242C
:1013F8000895B7DB7BDB2FD036DA3BD034DA2BD03D
:1014080032DA37D062DB72DB1CE12FE735E046E0E9
:101418008EDA17E426DB11E424DB1DE422DB15E475
:1014280020DB10E21EDB1FE41CDB16E51ADB15E4EB
:1014380018DB12E516DB07DA06DA08950F9308E0E1
:1014480000BF09B7046009BF0F9108950F930027E3
:1014580000BF0F9108950F93552049F00CE700BF86
:1014680004E00DBD00270EBD09B70B7F09BF0F9122
:10147800089500E000BF0895B99AC198BC98BB9838
:10148800C49AC39A789455240FEFB02E82DCC1DE3B
:10149800E2DFE9D9EEDFA4DB29DB442407D0FCDE58
:1014A8002FDFBB2011F4A5DFEFCFF6CF33270AD00B
:1014B800C5DF332329F48820E1F3F8298824F9CFFC
:1014C800C5DF089518E0EA3020F00E2F1A950A506B
:1014D800E8F708952F932FB71A9509F433952FBF7E
:0414E8002F91189593
:00000001FF
